{
  "contractName": "SmallBusinessInventory",
  "abi": [
    {
      "inputs": [],
      "stateMutability": "nonpayable",
      "type": "constructor"
    },
    {
      "anonymous": false,
      "inputs": [
        {
          "indexed": false,
          "internalType": "uint256",
          "name": "index",
          "type": "uint256"
        },
        {
          "indexed": false,
          "internalType": "string",
          "name": "name",
          "type": "string"
        },
        {
          "indexed": false,
          "internalType": "uint256",
          "name": "quantity",
          "type": "uint256"
        },
        {
          "indexed": false,
          "internalType": "uint256",
          "name": "price",
          "type": "uint256"
        }
      ],
      "name": "ProductAdded",
      "type": "event"
    },
    {
      "anonymous": false,
      "inputs": [
        {
          "indexed": false,
          "internalType": "uint256",
          "name": "index",
          "type": "uint256"
        },
        {
          "indexed": false,
          "internalType": "uint256",
          "name": "quantity",
          "type": "uint256"
        }
      ],
      "name": "ProductSold",
      "type": "event"
    },
    {
      "anonymous": false,
      "inputs": [
        {
          "indexed": false,
          "internalType": "uint256",
          "name": "index",
          "type": "uint256"
        },
        {
          "indexed": false,
          "internalType": "uint256",
          "name": "oldQuantity",
          "type": "uint256"
        },
        {
          "indexed": false,
          "internalType": "uint256",
          "name": "newQuantity",
          "type": "uint256"
        }
      ],
      "name": "QuantityUpdated",
      "type": "event"
    },
    {
      "inputs": [],
      "name": "owner",
      "outputs": [
        {
          "internalType": "address",
          "name": "",
          "type": "address"
        }
      ],
      "stateMutability": "view",
      "type": "function",
      "constant": true
    },
    {
      "inputs": [],
      "name": "productIndex",
      "outputs": [
        {
          "internalType": "uint256",
          "name": "",
          "type": "uint256"
        }
      ],
      "stateMutability": "view",
      "type": "function",
      "constant": true
    },
    {
      "inputs": [
        {
          "internalType": "uint256",
          "name": "",
          "type": "uint256"
        }
      ],
      "name": "products",
      "outputs": [
        {
          "internalType": "string",
          "name": "name",
          "type": "string"
        },
        {
          "internalType": "uint256",
          "name": "quantity",
          "type": "uint256"
        },
        {
          "internalType": "uint256",
          "name": "price",
          "type": "uint256"
        }
      ],
      "stateMutability": "view",
      "type": "function",
      "constant": true
    },
    {
      "inputs": [
        {
          "internalType": "string",
          "name": "name",
          "type": "string"
        },
        {
          "internalType": "uint256",
          "name": "quantity",
          "type": "uint256"
        },
        {
          "internalType": "uint256",
          "name": "price",
          "type": "uint256"
        }
      ],
      "name": "addProduct",
      "outputs": [],
      "stateMutability": "nonpayable",
      "type": "function"
    },
    {
      "inputs": [
        {
          "internalType": "uint256",
          "name": "index",
          "type": "uint256"
        },
        {
          "internalType": "uint256",
          "name": "quantity",
          "type": "uint256"
        }
      ],
      "name": "updateQuantity",
      "outputs": [],
      "stateMutability": "nonpayable",
      "type": "function"
    },
    {
      "inputs": [
        {
          "internalType": "uint256",
          "name": "index",
          "type": "uint256"
        },
        {
          "internalType": "uint256",
          "name": "quantity",
          "type": "uint256"
        }
      ],
      "name": "sellProduct",
      "outputs": [],
      "stateMutability": "nonpayable",
      "type": "function"
    },
    {
      "inputs": [
        {
          "internalType": "uint256",
          "name": "index",
          "type": "uint256"
        }
      ],
      "name": "checkProductQuantity",
      "outputs": [
        {
          "internalType": "uint256",
          "name": "quantity",
          "type": "uint256"
        }
      ],
      "stateMutability": "view",
      "type": "function",
      "constant": true
    },
    {
      "inputs": [],
      "name": "getProducts",
      "outputs": [
        {
          "components": [
            {
              "internalType": "string",
              "name": "name",
              "type": "string"
            },
            {
              "internalType": "uint256",
              "name": "quantity",
              "type": "uint256"
            },
            {
              "internalType": "uint256",
              "name": "price",
              "type": "uint256"
            }
          ],
          "internalType": "struct SmallBusinessInventory.Product[]",
          "name": "",
          "type": "tuple[]"
        }
      ],
      "stateMutability": "view",
      "type": "function",
      "constant": true
    }
  ],
  "bytecode": "0x608060405234801561001057600080fd5b50600280546001600160a01b03191633179055610c2d806100326000396000f3fe608060405234801561001057600080fd5b50600436106100885760003560e01c80638da5cb5b1161005b5780638da5cb5b146100f3578063c29b2f2014610108578063c897d5a61461011d578063d02b750f1461013257610088565b8063125b0b341461008d57806318b30a48146100a257806379cd4921146100b55780637acc0b20146100c8575b600080fd5b6100a061009b366004610757565b610145565b005b6100a06100b036600461081f565b610289565b6100a06100c336600461081f565b610389565b6100db6100d6366004610807565b61042d565b6040516100ea9392919061091d565b60405180910390f35b6100fb6104d7565b6040516100ea919061088b565b6101106104e6565b6040516100ea919061089f565b61012561065e565b6040516100ea9190610b05565b610125610140366004610807565b610664565b6002546001600160a01b031633146101785760405162461bcd60e51b815260040161016f90610a0a565b60405180910390fd5b60008351116101995760405162461bcd60e51b815260040161016f90610a87565b600082116101b95760405162461bcd60e51b815260040161016f90610989565b600081116101d95760405162461bcd60e51b815260040161016f90610abe565b6040805160608101825284815260208082018590528183018490526001546000908152808252929092208151805192939192610218928492019061069d565b5060208201518160010155604082015181600201559050507f0107e99fb43ba873db8a5ce7c34a12cd44cd3041167cff32040ddb6aca455ae66001548484846040516102679493929190610b0e565b60405180910390a16001805490600061027f83610bb0565b9190505550505050565b6002546001600160a01b031633146102b35760405162461bcd60e51b815260040161016f90610a0a565b60015482106102d45760405162461bcd60e51b815260040161016f90610a5c565b6000828152602081905260409020600101548111156103055760405162461bcd60e51b815260040161016f906109d3565b600081116103255760405162461bcd60e51b815260040161016f90610942565b60008281526020819052604081206001018054839290610346908490610b5e565b90915550506040517f23a1684ce44b9a79ff32baebeef9269b128c6e21d507a2374852b1bb483250279061037d9084908490610b3a565b60405180910390a15050565b6002546001600160a01b031633146103b35760405162461bcd60e51b815260040161016f90610a0a565b60015482106103d45760405162461bcd60e51b815260040161016f90610a5c565b6000828152602081905260409081902060010180549083905590517f5170190995b02fc1ea399c439b01725a8bd24a969fcd0b83453e3fd25ba753609061042090859084908690610b48565b60405180910390a1505050565b60006020819052908152604090208054819061044890610b75565b80601f016020809104026020016040519081016040528092919081815260200182805461047490610b75565b80156104c15780601f10610496576101008083540402835291602001916104c1565b820191906000526020600020905b8154815290600101906020018083116104a457829003601f168201915b5050505050908060010154908060020154905083565b6002546001600160a01b031681565b6060600060015467ffffffffffffffff81111561051357634e487b7160e01b600052604160045260246000fd5b60405190808252806020026020018201604052801561054c57816020015b610539610721565b8152602001906001900390816105315790505b50905060005b600154811015610658576000818152602081905260409081902081516060810190925280548290829061058490610b75565b80601f01602080910402602001604051908101604052809291908181526020018280546105b090610b75565b80156105fd5780601f106105d2576101008083540402835291602001916105fd565b820191906000526020600020905b8154815290600101906020018083116105e057829003601f168201915b505050505081526020016001820154815260200160028201548152505082828151811061063a57634e487b7160e01b600052603260045260246000fd5b6020026020010181905250808061065090610bb0565b915050610552565b50905090565b60015481565b600060015482106106875760405162461bcd60e51b815260040161016f90610a5c565b5060009081526020819052604090206001015490565b8280546106a990610b75565b90600052602060002090601f0160209004810192826106cb5760008555610711565b82601f106106e457805160ff1916838001178555610711565b82800160010185558215610711579182015b828111156107115782518255916020019190600101906106f6565b5061071d929150610742565b5090565b60405180606001604052806060815260200160008152602001600081525090565b5b8082111561071d5760008155600101610743565b60008060006060848603121561076b578283fd5b833567ffffffffffffffff80821115610782578485fd5b818601915086601f830112610795578485fd5b81356020828211156107a9576107a9610be1565b604051601f8301601f19168101820184811182821017156107cc576107cc610be1565b60405282815284830182018a10156107e2578788fd5b8282860183830137918201810196909652979486013596505050604090930135925050565b600060208284031215610818578081fd5b5035919050565b60008060408385031215610831578182fd5b50508035926020909101359150565b60008151808452815b8181101561086557602081850181015186830182015201610849565b818111156108765782602083870101525b50601f01601f19169290920160200192915050565b6001600160a01b0391909116815260200190565b60208082528251828201819052600091906040908185019080840286018301878501865b8381101561090f57603f198984030185528151606081518186526108e982870182610840565b838b0151878c0152928901519589019590955250948701949250908601906001016108c3565b509098975050505050505050565b6000606082526109306060830186610840565b60208301949094525060400152919050565b60208082526027908201527f53616c65207175616e74697479206d7573742062652067726561746572207468604082015266616e207a65726f60c81b606082015260800190565b6020808252602a908201527f50726f64756374207175616e74697479206d7573742062652067726561746572604082015269207468616e207a65726f60b01b606082015260800190565b60208082526018908201527f4e6f7420656e6f7567682073746f636b20746f2073656c6c0000000000000000604082015260600190565b60208082526032908201527f4f6e6c792074686520636f6e7472616374206f776e65722063616e207065726660408201527137b936903a3434b99037b832b930ba34b7b760711b606082015260800190565b602080825260119082015270141c9bd91d58dd081b9bdd08199bdd5b99607a1b604082015260600190565b6020808252601c908201527f50726f64756374206e616d652063616e6e6f7420626520656d70747900000000604082015260600190565b60208082526027908201527f50726f64756374207072696365206d7573742062652067726561746572207468604082015266616e207a65726f60c81b606082015260800190565b90815260200190565b600085825260806020830152610b276080830186610840565b6040830194909452506060015292915050565b918252602082015260400190565b9283526020830191909152604082015260600190565b600082821015610b7057610b70610bcb565b500390565b600281046001821680610b8957607f821691505b60208210811415610baa57634e487b7160e01b600052602260045260246000fd5b50919050565b6000600019821415610bc457610bc4610bcb565b5060010190565b634e487b7160e01b600052601160045260246000fd5b634e487b7160e01b600052604160045260246000fdfea26469706673582212200c857d2203e3f87e400e7c24e90ce8c13e8a13d45b77878404da8ab73a55e2a864736f6c63430008000033",
  "immutableReferences": {},
  "source": " // SPDX-License-Identifier: GPL-3.0\npragma solidity >=0.4.16 <0.9.0;\n\ncontract SmallBusinessInventory {\n    struct Product {\n        string name;\n        uint quantity;\n        uint price;\n    }\n\n    mapping (uint => Product) public products;\n    uint public productIndex;\n\n    address public owner;\n\n    event ProductAdded(uint index, string name, uint quantity, uint price);\n    event QuantityUpdated(uint index, uint oldQuantity, uint newQuantity);\n    event ProductSold(uint index, uint quantity);\n\n    modifier onlyOwner() {\n        require(msg.sender == owner, \"Only the contract owner can perform this operation\");\n        _;\n    }\n\n    constructor() {\n        owner = msg.sender;\n    }\n\n    function addProduct(string memory name, uint quantity, uint price) public onlyOwner {\n        require(bytes(name).length > 0, \"Product name cannot be empty\");\n        require(quantity > 0, \"Product quantity must be greater than zero\");\n        require(price > 0, \"Product price must be greater than zero\");\n\n        products[productIndex] = Product(name, quantity, price);\n        emit ProductAdded(productIndex, name, quantity, price);\n        productIndex++;\n    }\n\n    function updateQuantity(uint index, uint quantity) public onlyOwner {\n        require(index < productIndex, \"Product not found\");\n        require(quantity >= 0, \"Product quantity cannot be negative\");\n\n        uint oldQuantity = products[index].quantity;\n        products[index].quantity = quantity;\n        emit QuantityUpdated(index, oldQuantity, quantity);\n    }\n\n    function sellProduct(uint index, uint quantity) public onlyOwner {\n        require(index < productIndex, \"Product not found\");\n        require(products[index].quantity >= quantity, \"Not enough stock to sell\");\n        require(quantity > 0, \"Sale quantity must be greater than zero\");\n\n        products[index].quantity -= quantity;\n        emit ProductSold(index, quantity);\n    }\n\n    function checkProductQuantity(uint index) public view returns (uint quantity) {\n        require(index < productIndex, \"Product not found\");\n        return products[index].quantity;\n    }\n\n    function getProducts() public view returns (Product[] memory) {\n    Product[] memory productList = new Product[](productIndex);\n    for (uint i = 0; i < productIndex; i++) {\n        productList[i] = products[i];\n    }\n    return productList;\n}\n}",
  "sourcePath": "/Users/user/Desktop/Arsh project/contracts/SmallBusinessInventory.sol",
  "compiler": {
    "name": "solc",
    "version": "0.8.0+commit.c7dfd78e.Emscripten.clang"
  },
  "schemaVersion": "3.4.16",
  "updatedAt": "2024-03-04T22:57:26.586Z",
  "networkType": "ethereum",
  "devdoc": {
    "kind": "dev",
    "methods": {},
    "version": 1
  },
  "userdoc": {
    "kind": "user",
    "methods": {},
    "version": 1
  }
}